10001765ALI            SEVER          1995246000000000000000
10001840MUSTAFA        YILMAZ         2023152000000000000000
10001840MEHMET         AYDIN          1974261000000000000000
10001865AHMET          KIRAZ          2022195000000000000000
10001876ELIF           KARA           1998064000000000000000
10001949MUSTAFA        YILMAZ         2023152000000000000000
10001949MEHMET         AYDIN          1974261000000000000000
10001965SINEM          SEN            1996017000000000000000
10001978MUSTAFA        YILMAZ         2023152000000000000000
